:020000040800F2
:1000000068070020B5010008592D0008552D00088B
:1000100000000000000000000000000000000000E0
:100020000000000000000000000000005F2D00083C
:1000300000000000000000005D2D0008612D000898
:10004000E5010008E5010008E5010008E5010008F8
:10005000E5010008E5010008E5010008E5010008E8
:10006000E5010008E5010008E5010008E5010008D8
:10007000E5010008E5010008E5010008E5010008C8
:10008000E50100080000000000000000E501000894
:1000900000000000E5010008E5010008E501000896
:1000A00000000000E5010008E5010008E501000886
:1000B000E5010008000000001D0F0008E501000830
:1000C00000F002F800F04AF80CA030C808382418F4
:1000D0002D18A246671EAB4654465D46AC4201D180
:1000E00000F03CF87E460F3E0FCCB6460126334268
:1000F00000D0FB1AA246AB4633431847583A0000DB
:10010000783A0000103A02D378C878C1FAD852077A
:1001100001D330C830C101D504680C6070470000BD
:100120000023002400250026103A01D378C1FBD813
:10013000520700D330C100D50B60704710B5782945
:1001400002D100F03FF910BD002010BD1FB500988E
:10015000019900F03CFD1FBD10B510BD00F098FDE9
:100160001146FFF7F3FF03F04BFB00F0CAFD03B4A9
:10017000FFF7F2FF03BC00F037FE000070B5054644
:100180000C46164602E00FCC0FC5103E102EFAD2D8
:10019000082E02D303CC03C5083E042E07D301CC9E
:1001A00001C5361F03E021782970641C6D1C761E82
:1001B000F9D270BD0F4880F308880F480168090E16
:1001C0000E4A914205D10E480E4901600E480F4972
:1001D00001600F4880470F480047FEE7FEE7FEE753
:1001E000FEE7FEE7FEE700000B480C490C4A0D4B0A
:1001F0007047000068070020040000001F00000096
:100200001810024001000000000001400000000042
:10021000692D0008C100000868010020680700205F
:10022000680300206803002010B5202A04DB08467C
:10023000203AD040002110BD0B462024D340D040AE
:10024000A21A91400843194610BDFEB50546104656
:100250000C46184373D0AE468C460020AD1A0146BA
:100260009C4167D36646002701243D46B61A9D414E
:1002700002D313463A462124654676462F04360CAF
:100280003E432D0CB61A9D4104D3150C1B042B4381
:1002900012041034654676462F06360A3E432D0A70
:1002A000B61A9D4104D3150E1B022B4312020834CB
:1002B000654676462F0736093E432D09B61A9D41FD
:1002C00004D3150F1B012B431201241D65467646EE
:1002D000AF07B6083E43AD08B61A9D4104D3950F4B
:1002E0009B002B439200A41C65467646EF077608D8
:1002F0003E436D08B61A9D411AD392185B41641CA7
:1003000016E00018764665464941B71A9D410191AD
:10031000009009D36046B11A98418E4684460098F1
:1003200001990025401C6941DD0752082A435B08FA
:10033000641EE6D57246634603B0F0BDFFE70020B9
:100340000146C046C0462A462346F5E70FB41CB511
:10035000074B06AA7B4469460090059800F0C7FB4E
:100360000020694600F0D6FB1CBC08BC04B018474E
:10037000BD07000070B5044685690068C10601D557
:10038000302600E02026C00707D070BD62683046E6
:10039000A1689047206A401C20626D1EF6D570BD92
:1003A00070B5044685690078C00707D170BD6268E2
:1003B000A16820209047206A401C20626D1EF6D55F
:1003C00070BD000070B504460D4621461068C04659
:1003D000C0462188090502D50F4A7A4402E00E4A38
:1003E0007A440E3223460021243305E00607000933
:1003F000360F965D5E54491C0028F7D12078002303
:10040000000705D5702D03D0002901D00223113239
:10041000204600F00EFB70BDFA360000F3B504462E
:10042000002081B020622046E168884700287DD006
:10043000252802D06268A16883E0454F00257F44EB
:100440002046E16888472028064608DB312E06D280
:10045000B81920380078002801D00543F0E7A80734
:1004600001D5042085430020E0610746A0612A2EC3
:100470000AD0304603F088F9002827D0B8000019C8
:10048000303E0090866119E00298BA00121902C845
:10049000916102902046E1688847012F064617D1F6
:1004A000E06900281FDA202085431CE000980A211B
:1004B0008069484300998019303888612046E16896
:1004C0008847064603F060F90028EFD1012F0AD0D3
:1004D0002E2E08D12046E168884706462020054395
:1004E0007F1C022FC3DBA069002803DA4042A06111
:1004F00001200543E80701D010208543002E24D0B9
:1005000030464138192803D80120C002054320365F
:10051000204625603146029A1546FFF70FFE002857
:100520000CD0012807D0ED1DE80800E00DE0C00068
:100530000830029077E72D1D029574E76268304617
:10054000A1689047206A401C6CE7206AFEBD00004D
:10055000BE36000030B5441C03E00178401C002981
:100560000DD08107F9D10B4BDD0104C8D11A91439D
:100570002940FAD0001B0A0603D0C01E30BD001B64
:1005800030BD0A0401D0801E30BD0902FCD0401EDF
:1005900030BD000001010101F8B5042A2CD3830706
:1005A00012D00B78491C0370401C521E83070BD0DD
:1005B0000B78491C0370401C521E830704D00B7833
:1005C000491C0370401C521E8B079B0F05D0C91A93
:1005D000DF002023DE1B08C90AE0FFF7CFFDF8BDCE
:1005E0001D4608C9FD401C46B4402C4310C0121FD4
:1005F000042AF5D2F308C91A521EF0D40B78491C0C
:100600000370401C521EEAD40B78491C0370401C36
:10061000012AE4D409780170F8BD01E004C0091F83
:100620000429FBD28B0701D50280801CC90700D0AA
:100630000270704700290BD0C30702D00270401C23
:10064000491E022904D3830702D50280801C891E1B
:10065000E3E70022EEE70022DFE7002203098B42F6
:100660002CD3030A8B4211D300239C464EE0034651
:100670000B433CD4002243088B4231D303098B4205
:100680001CD3030A8B4201D394463FE0C3098B423B
:1006900001D3CB01C01A524183098B4201D38B0194
:1006A000C01A524143098B4201D34B01C01A524137
:1006B00003098B4201D30B01C01A5241C3088B427C
:1006C00001D3CB00C01A524183088B4201D38B0067
:1006D000C01A524143088B4201D34B00C01A524109
:1006E000411A00D201465241104670475DE0CA0FE0
:1006F00000D04942031000D34042534000229C46A0
:1007000003098B422DD3030A8B4212D3FC228901A9
:1007100012BA030A8B420CD3890192118B4208D37F
:10072000890192118B4204D389013AD0921100E0E1
:100730008909C3098B4201D3CB01C01A52418309F5
:100740008B4201D38B01C01A524143098B4201D322
:100750004B01C01A524103098B4201D30B01C01A4D
:100760005241C3088B4201D3CB00C01A52418308C7
:100770008B4201D38B00C01A5241D9D243088B421D
:1007800001D34B00C01A5241411A00D201466346C0
:1007900052415B10104601D34042002B00D5494224
:1007A000704763465B1000D3404201B50020C0464D
:1007B000C04602BD7047704770470000F0B5FF2586
:1007C0002D04C609C209FF2704462E400137CB0974
:1007D0003E4348402A402B400746002A6BD0002B5E
:1007E00069D0AA4267D0AB4265D0002800DA324611
:1007F0000125ED0529432C4309022002090AD21ADA
:100800004B0C7F24E31A434C000A7C44E35C7D24B8
:100810002404121914145B00A218884201D3521C3C
:1008200000E0400049420C465C4324115C43DB017C
:100830006415E318040A5C43C502200D0C464443CA
:100840006419250A5D432303EC0C0D466543000340
:100850000019EB184C42A34201D35B18401CD4058D
:100860002018002B07D05B00C91804D3401C0029B6
:1008700001D1400840003F2189048A4209D3002A5F
:1008800008DC1106090F04D0032149074018C00FE6
:10089000C007F0BD01224100120689187F225206CE
:1008A0009142F6D205214907C84201D59010F0BD0A
:1008B000FF20C005F0BD002F00DA32461648AA42DC
:1008C00007D2AB4205D21902090E17D0F80FC007A4
:1008D000F0BDFF2563002D06AB42F9D84900A942BF
:1008E000F6D8AB4201D1A942F2D0A94201D10021F0
:1008F00001E061004908D0050843F0BD1102090E6E
:10090000FBD0FF200243D005F0BD0A460146104649
:1009100054E70000033300000000C07F1F22030CD7
:1009200002D10F2200041CD0030E01D10002083AAC
:10093000030F01D10001121F830F01D18000921E0D
:10094000002801DB4000521ED20551180212511836
:100950001922904004D3491C002801D149084900BC
:1009600008467047C10FC90700D0404201229207D4
:100970001143D3E701218907D0E700000048704701
:100980003C01002070B5064600F004F905683046C9
:100990000B30C408E400B44201D8002070BD686880
:1009A0002A46002818D00168A14211D30B462146DF
:1009B00008318B4208D3436801194B6003681B1B45
:1009C0000B605160046001E041685160001D70BD22
:1009D000024640680028E6D12146284600F0E2F8A9
:1009E0000028DCD170BD70B50446051F00F0D2F8B8
:1009F0000068002C1AD0446801E020466468002C8E
:100A000001D0AC42F9D301680A18AA4204D12A687D
:100A100005468918016000E0456028684119A14237
:100A200005D16168696021684018286070BD6C60FC
:100A300070BDFFB504460D4681B02430009021689A
:100A4000880604D51022E0699143216000E001206E
:100A5000A84201DD471B00E000270498A1697A192C
:100A60001018081AA0612078C00602D42046FFF7AB
:100A700081FC002608E003986268A168805D9047C9
:100A8000206A401C761C206204988642F3DB2078A2
:100A9000C0060AD52046FFF76DFC06E06268A16833
:100AA00030209047206A401C206238467F1E002874
:100AB000F4DC07E000986268A168405D9047206A16
:100AC000401C206228466D1E0028F3DC2046FFF7FC
:100AD00067FC2078000602D5022005B0F0BD012099
:100AE000FBE7000001694A1C02610878704700B505
:100AF0008FB002910021059105490193794403913A
:100B0000114604906846FFF789FC0FB000BD000055
:100B1000E5FFFFFF0A681070521C0A60704710B5AD
:100B200000F089F810BD000010B5FF231B0644003B
:100B30009C421DD84C009C421AD80346124A0B43D3
:100B400007D4401A02D3EFF3008010BDEFF300800A
:100B500010BD081A06D2EFF3008001219043C907A7
:100B6000084302E0EFF30080904380F3008810BD5B
:100B70000D231B041A4204D01146002000F069F82E
:100B800010BD00F07DF810BD0000009000487047D7
:100B9000080100200048704710010020704770478E
:100BA0007047704738B504460A4600206946C0467B
:100BB000C046002805D002462046009900F087F87C
:100BC000012038BD10B5012000F0ADF810BDF8B51A
:100BD000C046C046054600200C461020C0460646CA
:100BE000A819A0420DD9324669460020C046C04629
:100BF000070001D100F097F80098A04200D0054608
:100C0000C419FFF7C7FFF61D07460560F008C000CE
:100C10004619284600F008F8B44204D03146386836
:100C2000A21B00F054F8F8BD002101604160806013
:100C300070471020704710B500F07FF80169002957
:100C400003D000220261884701E08068804700F0FD
:100C500060F8C80212D54803400F002804D0C8032A
:100C6000C043012188407047EFF300800001000974
:100C700003210907084380F300887047002070476C
:100C800010B5024800F080F810BD00000000C07FE1
:100C90007546FFF77BFFAE46050069465346C00820
:100CA000C000854618B020B5FFF79EFA60BC00274B
:100CB0004908B6460026C0C5C0C5C0C5C0C5C0C528
:100CC000C0C5C0C5C0C5403D49008D46704710B580
:100CD0000346406801E003464068002801D088428E
:100CE000F9D31868C3188B4206D0CB1CD808C000B3
:100CF000001D411A521A0146081D0A60FFF773FED3
:100D000010BD10B50446C046C0462046FFF72FFA76
:100D100010BD10B5002000F079F8FFF71DFA012092
:100D200000F062F810BD10B500F076F800F068F839
:100D300010BD000010B5FFF7ECFF70B500F05CF8D7
:100D400004680546002C15D12020FFF71BFE040087
:100D500012D0002009492C6003C409492160207188
:100D6000A060E06007492061083C002901D000F044
:100D70007BF8E061204670BDFFF7CBFF000000006C
:100D8000350D00080000000010B50C461107090FD2
:100D9000092904D00A290AD008290CD104E01146F7
:100DA0000820FFF756FF06E0510606D501E0510680
:100DB00001D50120C007214610BDD10607D501018C
:100DC0000909CC084907000E0006044309E0410F59
:100DD00020024907000A0143200E00061D22D141CE
:100DE00001430846E7E7000001491820ABBEFEE7D3
:100DF00026000200704700000048704744010020B0
:100E000010B5002801D0FFF7EFFF10BD10B500F0BE
:100E100067F8FFF7F5FF10BD10B5012805D00021D8
:100E200003A000F042F8012010BD09A1F8E700007E
:100E300053494752544D454D3A204F7574206F66C3
:100E40002068656170206D656D6F7279000000002B
:100E50003A2048656170206D656D6F727920636F0F
:100E6000727275707465640010B58820FFF78AFD92
:100E7000002801D00021017010BD802904D800286D
:100E800002D00178002901D00020704701210170B3
:100E900008307047002803D002460832914201D042
:100EA0000020704700210170704770B505460C4660
:100EB0000A2000E06D1C00F02BF8002D06D02878E9
:100EC0000028F7D102E0641C00F022F8002C02D0C8
:100ED00020780028F7D10A2000F01AF870BD000031
:100EE00010B5002102A0FFF7E0FF012010BD0000B7
:100EF000534947414252543A2041626E6F726D61CC
:100F00006C207465726D696E6174696F6E000000AB
:100F100008B5694608700320ABBE08BD10B502488D
:100F200000F082FA10BD00003800002072B600BF49
:100F3000FEE7000070B5044600F0D8FE05460BE061
:100F4000601C002808D0002C04D000F0CFFE401B0D
:100F5000A04201D9032070BD0F48C068C007C00F70
:100F60000028EDD10C48C06820210840202801D17C
:100F70000949C8600848C06810210840102805D0F9
:100F80000548C06804210840042803D102F010FB82
:100F90000120E0E70020DEE70020024010B5024615
:100FA0002020835C012B01D0022B06D11068406900
:100FB000084314686061002010BD506A0124A40435
:100FC000204350620120F7E7FFB581B004460D468B
:100FD0002020005D009020688368A868002800D168
:100FE00000E000BF0098012802D0009802287FD1BD
:100FF000012080061840002809D10120C0061840B1
:10100000002804D1012000071840002869D00320DF
:1010100000061840010E01208840049E3060A86838
:10102000002809D128884005EE6830432668FF363D
:1010300081360F01F0510AE06868C000AE683043A5
:10104000EE6830432668FF3681360F01F0512E6975
:101050002068FF3081300F01C0194660287D0128CB
:101060000ED12068FF3081300E0180194068FF26C4
:10107000013630432668FF3681360F01F61970605D
:10108000D0790006967936043043567936023043DB
:10109000167930432668FF3681360F01F619F06065
:1010A000D0780006967836043043567836023043BE
:1010B000167806432068FF3081300F01C019866022
:1010C0002068FF3081300E018059012630432668A8
:1010D000FF3681360F01F051002005B0F0BD07E06A
:1010E000FFE7606A01267605304360620120F4E77D
:1010F000606A0126B604304360620120EDE7F0B576
:1011000004460A4621682020055D012D01D0022DEC
:1011100071D10120400240580126304376027050C0
:10112000107DC606F60E0123B3408720800040588C
:1011300098438726B6007050D06900281DD18320BF
:101140008000405898438326B60070509089000470
:101150009688B6B230435669F6000927BF01CF1909
:10116000B851108900041688B6B230435669F600AB
:101170000927BF01CF19F6197060D06901281DD168
:1011800083208000405818438326B6007050108892
:1011900000049688B6B230435669F6000927BF01AD
:1011A000CF19B851108900049689B6B230435669F8
:1011B000F6000927BF01CF19F61970609069002861
:1011C00007D181208000405898438126B600705096
:1011D00006E081208000405818438126B6007050F8
:1011E0001069002808D18520800040589843852642
:1011F000B600705007E01AE0852080004058184380
:101200008526B6007050106A012806D1872080001C
:10121000405818438726B6007050012040024058BD
:10122000460876000120400246500020F0BD606A6A
:101230000126B604304360620120F7E7704770B5BD
:1012400004462020055D012D01D0022D7DD100290D
:101250000CD12068C0688007800F002813D1606A15
:101260000126760530436062012070BD2068006968
:101270008007800F002806D1606A0126760530437A
:1012800060620120F1E72068FF30B1300E01805923
:101290000426304090609068002807D12068FF3015
:1012A000B1300E018059400D106006E02068FF301B
:1012B000B1300E018059C00850602068FF30B13055
:1012C0000E01805902263040D0602068FF30B130D6
:1012D0000E01801940680007000F082802D308207B
:1012E000106108E02068FF30B1300E0180194068BD
:1012F0000007000F10612068FF30B1300E01801927
:101300004068FF2636023040000A90612068FF30B6
:10131000B1300E0180194068000C50612068FF3028
:10132000B1300E018019806818702068FF30B1302C
:101330000E0180198068FF2636023040000A58707E
:101340002068FF30B1300E0100E044E08019806871
:10135000FF2636043040000C98702068FF30B13012
:101360000E0180198068000ED8702068FF30B130FF
:101370000E018019C06818712068FF30B1300E016D
:101380008019C068FF2636023040000A5871206874
:10139000FF30B1300E018019C068FF26360430409E
:1013A000000C98712068FF30B1300E018019C068C0
:1013B000000ED871002906D12068C068202630436D
:1013C0002668F06005E02068006920263043266822
:1013D0003061002049E7606A0126B604304360624C
:1013E000012042E710B50146002020235A5C012A63
:1013F00001D0022A17D10B689B680124A406234060
:10140000002B00D0401C0B689B680124E40623409D
:10141000002B00D0401C0B689B680124240723404C
:10142000002B00D0401C10BDF0B585B0044600254F
:1014300020684669206840680390206887682068B3
:10144000C06802902068006901902068806900905F
:10145000F007C00F00286DD0F807C00F00281DD07E
:1014600001202168886002203840002803D02046EF
:1014700000F0ADFA12E004203840002803D001202B
:10148000C00205430AE008203840002803D00120AC
:101490000003054302E0204600F098FAFF200130E7
:1014A0003840002820D0FF200130216888604000AB
:1014B0003840002803D0204600F08BFA14E00120C9
:1014C00080023840002803D00120400305430BE090
:1014D0000120C0023840002803D0012080030543CA
:1014E00002E0204600F074FA012000043840002891
:1014F00020D0012000042168886040003840002886
:1015000003D0204600F067FA14E001208004384040
:10151000002803D00120C00305430BE00120C004D4
:101520003840002803D001200004054302E0204693
:1015300000F050FA08203040002809D0102102980D
:101540000840002804D04801054310202168C860E5
:101550000420304000280AD00821029808400028C2
:1015600005D008202168C860204600F0D3F9022089
:101570003040002808D02068C0688007800F00280D
:1015800002D0204600F0C8F940203040002809D0A1
:10159000102101980840002804D08801054310203C
:1015A000216808612020304000280AD008210198D5
:1015B0000840002805D0082021680861204600F076
:1015C000D1F910203040002808D020680069800739
:1015D000800F002802D0204600F0C5F90120400409
:1015E000304000280AD0102103980840002805D078
:1015F000102021684860204600F0B6F90120000460
:10160000304000280AD0082103980840002805D05F
:10161000082021684860204600F0DEF90120C00360
:101620003040002860D0042103980840002858D09A
:1016300088013040002806D00098C007C00F00285D
:1016400001D001200543012040023040002806D08F
:10165000022100980840002801D002200543012003
:1016600080023040002806D004210098084000285D
:1016700001D0042005430120C0023040002830D0B2
:1016800070210098084000282BD00098084040287E
:1016900015D006DC102809D020280AD0302818D10F
:1016A0000AE050280ED0602813D10EE00820054330
:1016B00010E0102005430DE0202005430AE0402003
:1016C000054307E08020054304E0FF200130054387
:1016D00000E000BF00BF2068806970218843216856
:1016E0008861042021684860002D05D0606A284385
:1016F00060622046FFF7A2FD05B0F0BD70B504465C
:10170000002C01D1012070BD2020005D002802D1F5
:10171000204600F0B7F820680068012108432168DE
:10172000086000F0E3FA054620680068022188435B
:10173000216808600EE000F0D9FA401B0A2809D998
:10174000606A012149040843606205212020015597
:101750000120D8E720684068C007C00F0028EAD001
:1017600020680068022188432168086000F0BEFA02
:1017700005460EE000F0BAFA401B0A2809D9606A53
:101780000121490408436062052120200155012000
:10179000B9E720684068022108400028EAD1207E8D
:1017A000012806D12068006880210843216808606C
:1017B00005E0206800688021884321680860607E19
:1017C000012806D12068006840210843216808608C
:1017D00005E0206800684021884321680860A07EF9
:1017E000012806D12068006820210843216808608C
:1017F00005E0206800682021884321680860E07EB9
:10180000012806D1206800681021884321680860FB
:1018100005E0206800681021084321680860207FE7
:10182000012806D120680068082108432168086063
:1018300005E0206800680821884321680860607F0F
:10184000012806D120680068042108432168086047
:1018500005E0206800680421884321680860E16889
:10186000A068084321690843616908436168491E0B
:1018700008432168C86100206062012120200155D1
:10188000002040E710B586B00446142101A8FEF7F9
:10189000E2FE1E492068884236D100BF1C48C0695C
:1018A0000121490608431A49C8610846C069012157
:1018B00049060840009000BF00BF00BF14484069BF
:1018C0000912084312494861084640690121490448
:1018D0000840009000BF00BF0320C002019002201A
:1018E000029000200390032004900420059001A999
:1018F0000920C00600F00AF9002211461E2000F05F
:10190000F7FC1E2000F0E6FC06B010BD00640040AD
:10191000001002407047000010B504460F4B104AFB
:1019200000212046FFF78BFC002815D10B480078DA
:10193000002804D0012805D0022809D105E001F0D3
:1019400056FA08E001F012FA05E001F00EFA02E0A2
:1019500001F04EFA00BF00BF10BD000008000020DB
:10196000CC00002070477047704770B504462020B7
:10197000005D012823D10221202001552068006844
:10198000400840002168086000F0B0F905460EE00C
:1019900000F0ACF9401B0A2809D9606A012149040A
:1019A00008436062052120200155012070BD206898
:1019B0004068C007C00F0028EAD16062F6E7606A9D
:1019C0000121C904084360620120EFE770477047B6
:1019D00070477047704770477047000070B5044605
:1019E00000F084F906462546681C002802D0054808
:1019F00000782D1800BF00F079F9801BA842FAD3B7
:101A000070BD0000200000200348006980210843C9
:101A1000014908610020704700200240F0B51FB462
:101A200086B0074615461E4601200390002400207C
:101A3000029000BF2548007E012802D102200BB091
:101A4000F0BD01202149087600BF2148FFF772FA56
:101A500003900398002831D1012F02D10120029078
:101A600006E0022F02D10220029001E00420029041
:101A700000241FE022012846314604960595FEF712
:101A8000D3FB80B26100019007980818009001997B
:101A900001F0B2FD0E48FFF74DFA03900D480069C2
:101AA000400840000B4908610398002800D004E07A
:101AB000601CC4B202988442DCDB00BF00BF00207F
:101AC0000249087600BF0398B9E70000E80000204B
:101AD00050C300000020024000200949096980220B
:101AE000114000290BD00749054A51600649516051
:101AF0001146096980221140002900D00120704759
:101B00000020024023016745AB89EFCD78B503463D
:101B10000A460021DAE001268E4014683440002C89
:101B20007ED01579AD07AD0F012D04D01579AD0725
:101B3000AD0F022D18D198684E000325B54006461A
:101B4000AE4330464E00D568B5402843986058688B
:101B500001258D400646AE43304610265568354077
:101B60002D098D40284358601579AD07AD0F032D21
:101B70000BD0D8684E000325B5400646AE4330462C
:101B80004E009568B5402843D8601579AD07AD0F74
:101B9000022D15D1CD08AE001D462035A8594D07A0
:101BA000EE0E0F25B5400646AE4330464E07F60E04
:101BB0001569B5402843CD08AD001E46203670514A
:101BC00018684E000325B5400646AE4330461579E9
:101BD000AD07AD0F4E00B54028431860032636040C
:101BE00055683540002D70D000BF3B4DAD690126D2
:101BF0003543394EB5613546AD69ED07ED0F0095BA
:101C000000BF00BF354D8E08B600A8598D072E0FB6
:101C10000F25B5400646AE4330460925ED0600E0E7
:101C200053E0AB4201D100250AE02D4DAB4201D17A
:101C3000012505E02B4DAB4201D1022500E0052531
:101C40008E07360FB5402843244D8E08B600A851A4
:101C5000254DA8680546A543284601263605556842
:101C60003540002D02D00546254328461E4DA8606C
:101C7000E8680546A543284601267605556835409F
:101C8000002D02D0054625432846174DE8606868B8
:101C90000546A54328460126760455683540002DA3
:101CA00002D00546254328460F4D68602868054642
:101CB000A54328460126360455683540002D02D03C
:101CC000054625432846084D2860491C1568CD4027
:101CD000002D00D01FE778BD001002400800014031
:101CE0000004004800080048000401400148006862
:101CF000704700001800002002464120805C202828
:101D00002FD100BF4020805C012801D10220704704
:101D100001234020835400BF2423412083541068B2
:101D200000684008400013681860106800680123CC
:101D30001B03984313681860106800680843136811
:101D40001860106800680123184313681860202386
:101D50004120835400BF00234020835400BF002053
:101D6000D5E70220D3E710B502460B464120805C40
:101D700020282ED100BF4020805C012801D1022004
:101D800010BD01244020845400BF242441208454E9
:101D900010680068400840001468206010680168FE
:101DA0000F2424020846A04301461802014310688C
:101DB000016010680068012420431468206020241A
:101DC0004120845400BF00244020845400BF0020E0
:101DD000D6E70220D4E7000010B50446002C01D15C
:101DE000012010BD4120005D002805D100214020C8
:101DF0000155204600F0C6F92421412001552068F4
:101E0000006840084000216808600F2109066068EA
:101E1000884321680861206880680121C9038843DC
:101E200021688860E068012806D10121C903A06803
:101E300008432168886005E021218902A0680843E1
:101E400021688860E068022802D180022168486029
:101E50002068406814490843216848602068C068C9
:101E60000121C90388432168C8606169206908436A
:101E7000A169090208432168C860216AE069084332
:101E80002168086020680068012108432168086013
:101E900000206064202141200155002020630021A2
:101EA0004220015500209CE700800002FFB581B070
:101EB000044616461F464120005D202877D100BF0A
:101EC0004020005D012802D1022005B0F0BD0121B3
:101ED0004020015500BFFFF709FF054619230122E5
:101EE000D1032046009501F057FA002801D00120C7
:101EF000EBE722214120015510214220015500200D
:101F00006064666267856063608DFF280BD9FF207F
:101F100020853F480090208DC2B20B0520460299D3
:101F200001F06EF90BE0608D208539480090208D1E
:101F3000C2B201235B062046029901F061F943E039
:101F40002A4620460A9901F05DFA002801D00120B6
:101F5000BBE72068406A616A0870606A401C606282
:101F6000208D401E2085608D401E6085608D00287C
:101F70002AD0208D002827D10095002280212046DC
:101F80000A9B01F009FA002801D001209DE7608D2D
:101F9000FF280DD9FF20208500200090208DC2B29F
:101FA00001231B062046029901F02AF90CE02CE0DF
:101FB000608D208500200090208DC2B201235B0639
:101FC0002046029901F01CF9608D0028B8D12A46FC
:101FD00020460A9901F082FA002801D0012074E716
:101FE00020202168C861206840680A4908402168AB
:101FF000486020214120015500214220015500BFA9
:102000004020015500BF00205FE702205DE700008F
:102010000024008000E800FEFFB581B004461646AB
:102020001F464120005D202877D100BF4020005D81
:10203000012802D1022005B0F0BD01214020015548
:1020400000BFFFF753FE054619230122D1032046A6
:10205000009501F0A1F9002801D00120EBE7212132
:102060004120015510214220015500206064666224
:1020700067856063608DFF280BD9FF2020853F486E
:102080000090208DC2B20B052046029901F0B8F8ED
:102090000BE0608D208539480090208DC2B201236D
:1020A0005B062046029901F0ABF843E02A46204641
:1020B0000A9901F046FA002801D00120BBE7606AC6
:1020C000007821688862606A401C6062608D401EF2
:1020D0006085208D401E2085608D00282AD0208DAF
:1020E000002827D100950022802120460A9B01F07C
:1020F00053F9002801D001209DE7608DFF280DD9FC
:10210000FF20208500200090208DC2B201231B06F5
:102110002046029901F074F80CE02CE0608D2085D7
:1021200000200090208DC2B201235B062046029958
:1021300001F066F8608D0028B8D12A4620460A9939
:1021400001F0CCF9002801D0012074E7202021689B
:10215000C861206840680A49084021684860202119
:102160004120015500214220015500BF402001556A
:1021700000BF00205FE702205DE700000020008034
:1021800000E800FE10B586B00446142101A8FEF751
:1021900062FA1B49206888422FD100BF1948406964
:1021A0000121490408431749486108464069012153
:1021B00049040840009000BF00BF03204002019086
:1021C0001220029000200390032004900420059028
:1021D00001A90920C006FFF799FC00BF0948C069A2
:1021E0000121490508430749C8610846C069012122
:1021F00049050840009000BF00BF06B010BD0000B8
:102200000054004000100240034800680349097868
:102210004018014908607047180000202000002085
:1022200010B50648006810210843044908600320DF
:1022300000F006F800F02EF8002010BD002002404B
:1022400070B50446104801787D20C000FEF705FAFD
:10225000064631460D480068FEF7FFF9054600F0D6
:102260005DFD002801D0012070BD042C07D20022A2
:102270002146501E00F03CF80548046001E00120B2
:10228000F2E70020F0E700002000002024000020FA
:102290001C00002008B500BF0D48806901210843DB
:1022A0000B49886108468069C007C00F009000BFD5
:1022B00000BF00BF0846C069090408430449C8615B
:1022C0000846C06909040840009000BF00BF08BD6F
:1022D000001002400146002905DBCB06DB0E01227F
:1022E0009A40024B1A6000BF7047000000E100E016
:1022F00070B504460D4616462946204601F08CF975
:1023000070BD0000F8B5044600260025012109042F
:102310002068084088427AD100275948C0690903DB
:10232000084000280DD100BF5548C06908435449F2
:10233000C8610846C06909040840009000BF00BF9A
:10234000012750480068FF2101310840002816D1BC
:102350004C48006808434B490860FFF7C7FC064635
:1023600006E0FFF7C3FC801B642801D90320F8BDF9
:1023700044480068FF21013108400028F1D040485E
:10238000006A0321090208400546002D2DD060682F
:102390000840A84229D03A48006A88430546384890
:1023A000006A012109040843354908620846006AA9
:1023B0000121090488433249086208460562E8079A
:1023C000C00F002811D0FFF791FC064607E0FFF789
:1023D0008DFC801B2C49884201D90320C7E728487F
:1023E000006A022108400028F1D02548006A032134
:1023F000090288436168084321490862012F05D119
:102400000846C069090488431D49C86100BF207897
:10241000C007C00F002807D01948006B8008800053
:10242000A168084316490863202120680840202835
:1024300007D11348006B10218843E1680843104915
:1024400008630121490420680840884207D10C48EC
:10245000006B8021884361690843094908630121B1
:10246000890220680840884207D10548006B402156
:1024700088432169084302490863002077E7000088
:1024800000100240007000408813000070B5044640
:102490000D46002C01D1012070BD58480068C007CE
:1024A000C00FA8420ED2554800684008400028439B
:1024B0005249086008460068C007C00FA84201D012
:1024C0000120E9E7022120680840022814D10421F4
:1024D00020680840042807D14948406807210902BC
:1024E000884340184649486045484068F021884381
:1024F000A1680843424948602078C007C00F0028FF
:1025000047D06068012808D13D480068012149048E
:102510000840002821D10120BEE76068022808D1C8
:1025200037480068012149060840002815D10120DC
:10253000B2E76068032808D13148406B01214904A3
:102540000840002809D10120A6E72D480068022193
:102550000840002801D101209EE7294840688008F2
:1025600080006168084326494860FFF7BFFB0646C4
:1025700007E0FFF7BBFB801B2249884201D90320FB
:102580008AE71F4840680C2108406168890088423A
:10259000EFD11A480068C007C00FA8420ED91748EB
:1025A0000068400840002843144908600846006855
:1025B000C007C00FA84201D001206DE704212068A8
:1025C0000840042808D10E484068072109028843C2
:1025D000E16808430A49486000F01AF80849496868
:1025E000F02211400909084A515CC84007490860B7
:1025F0000320FFF725FE00204EE7000000200240E8
:102600000010024088130000C03A00082400002097
:10261000F8B50025002400270026002000902B4854
:1026200045680C202840002848D0042804D00828F9
:1026300005D00C2843D13EE02548009042E00F2011
:1026400080042840800C23490E5C2048C06A0007A3
:10265000000F21490C5C0320C0032840012109041C
:1026600088420AD12246002319481946FDF7EDFD9C
:10267000314601F071F807461BE00320C0032840F3
:102680000321C90388420AD1224600231348194670
:10269000FDF7DBFD314601F05FF8074609E0224611
:1026A00000230B481946FDF7D0FD314601F054F8E0
:1026B0000746009706E00948009003E000BF044881
:1026C000009000BF00BF0098F8BD0000001002405D
:1026D00000127A00A03A0008B03A0008006CDC0250
:1026E000FEB50446002C01D10120FEBD2078C007B4
:1026F000C00F002872D0FC4840680C210840042814
:102700000CD0F94840680840082813D1F6484068C2
:10271000490308400121090488420BD1F2480068AE
:1027200001214904084000286BD06068002868D166
:102730000120DAE700BF6068012807D1EA48006895
:10274000012109040843E849086031E06068002875
:102750000ED1E5480068012109048843E249086078
:1027600008460068012189048843DF4908601FE0AA
:10277000606805280ED1DC480068012189040843FF
:10278000D949086008460068012109040843D64970
:1027900008600DE0D4480068012109048843D2494B
:1027A000086008460068012189048843CE49086012
:1027B00000BF6068002812D0FFF798FA054606E0CF
:1027C000FFF794FA401B642801D903208DE7C6481F
:1027D00000680121490408400028F1D011E0FFF70A
:1027E00085FA054606E0FFF781FA401B642801D907
:1027F00003207AE7BC48006801214904084000280A
:10280000F1D1022120680840022862D1B648406810
:102810000C21084000280CD0B34840680840082824
:102820001CD1B1484068490308400121C9038842CE
:1028300014D1AD48006802210840002804D0E068A7
:10284000012801D0012050E7A7480068F8218843FB
:102850002169C9000843A44908603AE0E0680028FB
:1028600020D0A1480068012108439F490860FFF774
:102870003DFA054606E0FFF739FA401B022801D968
:10288000032032E798480068022108400028F2D06F
:1028900095480068F82188432169C9000843924996
:1028A000086016E090480068400840008E490860C3
:1028B000FFF71CFA054606E0FFF718FA401B02284E
:1028C00001D9032011E78848006802210840002848
:1028D000F2D1082120680840082831D1E069002899
:1028E00017D08148406A012108437F494862FFF7B9
:1028F000FDF9054606E0FFF7F9F9401B022801D96A
:102900000320F2E67848406A022108400028F2D00D
:1029100016E07548406A4008400073494862FFF776
:10292000E5F9054606E0FFF7E1F9401B022801D969
:102930000320DAE66C48406A022108400028F2D100
:10294000042120680840042872D1002001906648C4
:10295000C0698906084000280ED100BF6248C069DE
:1029600008436149C8610846C069090408400090ED
:1029700000BF00BF012001905C480068FF210131C9
:102980000840002816D15948006808435749086094
:10299000FFF7ACF9054606E0FFF7A8F9401B6428ED
:1029A00001D90320A1E651480068FF210131084008
:1029B0000028F1D000BFA068012806D14A48006A6B
:1029C00001210843484908622AE0A06800280BD189
:1029D0004548006A4108490043480162006A0421F1
:1029E0008843414908621BE0A06805280CD13E4895
:1029F000006A042108433C4908620846006A012134
:102A00000843394908620BE03748006A4008400033
:102A1000354908620846006A042188433249086241
:102A200000BFA068002813D0FFF760F9054608E052
:102A30002BE0FFF75BF9401B2D49884201D90320A9
:102A400053E62948006A022108400028F1D011E02D
:102A5000FFF74CF9054607E0FFF748F9411B24480A
:102A6000814201D9032040E61F48006A0221084044
:102A70000028F1D10198012806D11B48C069012125
:102A8000090788431849C86100BF10212068084021
:102A900010285FD1606901282CD11348406B0421B4
:102AA0000843114948630846406B012108430E4919
:102AB0004863FFF71BF9054606E0FFF717F9401BCF
:102AC000022801D9032010E60748406B0221084084
:102AD0000028F2D00448406BF8218843A169C9005E
:102AE00008430149486335E000100240007000408F
:102AF000881300006069401D00280FD18648406B94
:102B000004218843844948630846406BF821884380
:102B1000A169C9000843804948631BE07E48406BB7
:102B2000042108437C4948630846406B4008400044
:102B30004863FFF7DBF8054606E0FFF7D7F8401BD0
:102B4000022801D90320D0E57348406B02210840D8
:102B50000028F2D1202120680840202852D16E4858
:102B600040680C2108400C280AD06B484068084097
:102B7000082811D1684840684903084088420BD1B1
:102B80006548406B01214904084000283AD0206A7A
:102B9000012837D00120A8E5206A002819D05E4816
:102BA000406B0121090408435B494863FFF79EF825
:102BB000054606E0FFF79AF8401B022801D90320DA
:102BC00093E55548406B0121490408400028F1D0A5
:102BD00018E05148406B0121090488434E4948637D
:102BE000FFF784F8054606E0FFF780F8401B02284F
:102BF00001D9032079E54848406B01214904084088
:102C00000028F1D1606A00284FD0434840680C2169
:102C10000840082864D0606A022847D13E4800680E
:102C20000121090688433C490860FFF75FF8054623
:102C300006E0FFF75BF8401B022801D9032054E5AA
:102C4000354800680121490608400028F1D100BF3D
:102C50003148C06A00090001216B08432E49C8624F
:102C6000A16AE06A08432C4949687B22D203914358
:102C700008432949486000BF084600680121090649
:102C8000084325490860FFF731F8054606E0FFF7DD
:102C90002DF8401B022801D9032026E51E480068B4
:102CA0000121490608400028F1D033E01A480068A5
:102CB00001210906884318490860FFF717F80546FF
:102CC00006E0FFF713F8401B022801D903200CE5AA
:102CD000114800680121490608400028F1D119E097
:102CE000606A012800D100E50B484668C76A0320E6
:102CF000C0033040A16A88420AD13907090F206B0E
:102D0000814205D10F2080043040E16A884201D021
:102D10000120EAE40020E8E40010024070B5044617
:102D20002546681E0949884201D901200CE0681E29
:102D3000074948610321081F00F06EFC0020044988
:102D4000886107200861002070BD0000FFFFFF00C0
:102D500000E000E000BFFEE700BFFEE770477047FD
:102D600010B5FFF751FA10BD70477047704700B5B6
:102D700097B034210AA8FDF76EFC0020069007905A
:102D80000890099018216846FDF765FC02200A901A
:102D900001200D9010200E900220139081031491B9
:102DA00081041591002116910AA8FFF799FC0028CB
:102DB00001D0FEF7BBF80720069002200790002004
:102DC00008900990012106A8FFF760FB002801D0B8
:102DD000FEF7ACF820200090002003906846FFF733
:102DE00091FA002801D0FEF7A1F817B000BD704796
:102DF000704713B582B00446642000902179012306
:102E000003AA2068FFF708F9642000902179642361
:102E1000621D2068FFF74AF81FBD70B504466C209C
:102E200000F082FC054600260AE030463230C1B28E
:102E30002046FFF7DEFFB000411960790870761C6C
:102E40000D2EF2DD09212046FFF7D3FF38206179EE
:102E500041550D212046FFF7CCFF3C2061794155BB
:102E60004F212046FFF7C5FF4020617941551121D0
:102E70002046FFF7BEFF4420617941550F212046CF
:102E8000FFF7B7FF48206179415512212046FFF72F
:102E9000B0FF4C2061794155284670BD0160162273
:102EA00002717047FEB506460F46042000F040FC54
:102EB00002901C2000F03CFC0446781C002805D140
:102EC0007069406800680069206100E027617569E9
:102ED00020E06D68286800692169884219D11C22A8
:102EE00020462968FDF74AF9626821680298FDF7D3
:102EF00045F91C2000F01CFC0190234662680299F1
:102F000000F0DAFB01900090029800F009FC0098B4
:102F1000FEBD00BF68680028DBD1029800F000FC0D
:102F20000020F5E7F0B587B004460D46042000F018
:102F3000FFFB0690082000F0FBFB0590A8690068E5
:102F4000002802D12069A9690860606940680028EA
:102F500007D06069406800680069401CA969086181
:102F600002E00020A9690861A868FDF7F3FA0646A7
:102F70003246A9680698FDF70FFBA96962691068D7
:102F80001C22FDF7FBF861690598416005986061B6
:102F9000FEF7A2FD002613E0B100069847583A4616
:102FA000002302202169FEF739FD002804D0FEF736
:102FB0002BFD022007B0F0BD2069001D2061761CAA
:102FC000A868FDF7C7FA0190FDF7D4FC8121C90577
:102FD0000290FDF7F3FB0746384600F0DDFB049056
:102FE0003046FDF7BFFC0390049900F0C7FCD3D333
:102FF000FEF70AFD069800F093FB0020DAE70000D8
:10300000FFB503460C4600200090019000BF1BE076
:10301000012113E08500124E76598500114F7D592C
:103020004D437519954208D94D1E00956E46307175
:10303000019E009D5E601D60FFBD491C85000A4E1B
:1030400075598D42E6D8401C084909788842DFDB73
:103050000020029003901860586000BFECE7000069
:10306000280000202C000020300000203400002028
:103070001CB50446134A21466846FFF7C1FF019973
:103080000098E160A060207B2071A068401C206057
:10309000207B80000C49085821684843217B890027
:1030A0000A4A515840182061082000F041FB606135
:1030B0001C2000F03DFB61690860002061694860E8
:1030C00020461CBDAC3B00082C000020280000203E
:1030D00000B58BB01A481B490860042048600021E5
:1030E00018488160C160032189040161012109053B
:1030F0004161002101760121417600218176C1766E
:10310000017701214177FEF7F9FA002801D0FDF798
:103110000DFF0020069007900120089000200190EC
:1031200002900390049005900120099001A90548A0
:10313000FDF7E5FF002801D0FDF7F8FE0BB000BD5C
:10314000006400403800002008B500BF074840690F
:1031500001214904084305494861084640690121A5
:1031600049040840009000BF00BF08BD00100240A5
:1031700010B51348134908601348486000211148EE
:1031800081600121C1600021016141618161C161F2
:103190000162FEF721FE002801D0FDF7C7FE0021E5
:1031A0000848FEF7A9FD002801D0FDF7BFFE002169
:1031B0000448FEF7D8FD002801D0FDF7B7FE10BD8A
:1031C00000540040600000200E0900200168896959
:1031D000022211404908002902D0002102689162B0
:1031E00001688969C907C90F01225140514000296E
:1031F00004D1016889691143026891617047000038
:10320000F8B5069C8D05AD0D1604FF273F043E4022
:1032100035431D4325436D006D08009505686E68B4
:10322000650D0127BF023D40034F3D43AE43009D66
:103230002E4305686E60F8BDFF63FF03F7B584B0E9
:1032400004460E46002003902068876900250698F2
:10325000029010203840102854D12168C8613DE008
:10326000701C00283AD0FEF741FD0299401AB04286
:1032700001D8002E32D1206840680121890308401E
:1032800001904220005D009020688069490008405C
:10329000C00B00280ED04910019888420AD000982F
:1032A000202807D020684068084321684860FEF75E
:1032B0001DFD02900AE0FEF719FD0299401A192837
:1032C00004D9202005430120039006E0206880698E
:1032D0002021084040090028EDD000BF2068806907
:1032E000202108404009002802D103980028B7D0C7
:1032F0000398002802D120202168C86104200543DA
:103300000120039020688769FF2001303840FF21A9
:103310000131884206D10120054300022168C861BD
:103320000120039001208002384001218902884257
:1033300006D108200543C0012168C861012003901F
:1033400001204002384001214902884206D1022072
:10335000054300022168C8610120039003980028FA
:1033600015D02046FFF732FF206840680949084021
:1033700021684860606C2843606420214120015529
:1033800000214220015500BF4020015500BF039895
:1033900007B0F0BD00E800FEF8B504460D4617463C
:1033A0001E4623E0701C002820D0FEF79FFC0699E3
:1033B000401AB04201D8002E18D1206880692840F8
:1033C000A84201D1012000E00020B8420ED1606C7B
:1033D000202108436064412001550021422001550D
:1033E00000BF4020015500BF0120F8BD2068806962
:1033F0002840A84201D1012000E00020B842D1D0ED
:103400000020F2E770B504460D4616465AE03246F3
:1034100029462046FFF712FF002801D0012070BD89
:103420002068806920210840400900282FD02068AA
:103430008069042108408008002804D0208D0028DD
:1034400001D00020EBE720688069102108400009C6
:10345000002805D010202168C8610420606401E0C4
:103460000020606420202168C861206840681A49F3
:103470000840216848602021412001550021422058
:10348000015500BF4020015500BF0120C7E7FEF7EE
:103490002DFC801BA84201D8002D13D12068806923
:1034A00004210840800800280CD1606C20210843CA
:1034B00060644120015500BF00214020015500BF3C
:1034C0000120ACE7206880690421084080080028BA
:1034D0009DD00020A3E7000000E800FE70B5044680
:1034E0000D46164624E0324629462046FFF7A6FE42
:1034F000002801D0012070BDFEF7F8FB801BA84218
:1035000001D8002D14D1206880692021084040098D
:1035100000280DD1606C08436064412001550021F2
:103520004220015500BF4020015500BF0120E2E7C5
:10353000206880692021084040090028D3D000205D
:10354000D9E770B504460D46164628E032462946AE
:103550002046FFF773FE002801D0012070BD681CD3
:1035600000281CD0FEF7C2FB801BA84201D8002D0A
:1035700015D12068806902210840400800280ED13A
:10358000606C2021084360644120015500214220E5
:10359000015500BF4020015500BF0120DEE7206833
:1035A00080690221084040080028CFD00020D5E7DC
:1035B00000200F49C96810221140102907D10D4978
:1035C000C969022211430B4AD161102108430849FD
:1035D000C96804221140042907D10649C96901229A
:1035E0001143044AD161042108430149C86070476E
:1035F00000200240E80000200022054BDA61054A65
:10360000126901231A43034B1A61018070470000BD
:10361000E80000200020024010B5002819DB1A4AFB
:1036200003231B02D21883089B00D2588307DC0EA9
:10363000FF23A3409A438B071B0E8407E40EA3408D
:103640001A43114B032424021B198408A4001A51A5
:1036500018E00E4A03071B0F083B9B089B00D2583B
:103660008307DC0EFF23A3409A438B071B0E8407BE
:10367000E40EA3401A43054B0407240F083CA4089A
:10368000A4001A5110BD000000E100E01CED00E0B4
:1036900070B504460E46154600202060206160612A
:1036A000012000F045F8A0602A463146A068FCF7EA
:1036B00073FF6561204670BDFFB581B005461746B2
:1036C0001E463A4628460299FFF7E2FF0546002EBD
:1036D0000FD11C2000F02CF8044608A0606160693E
:1036E000FCF738FFA0610020206167602060AC61BA
:1036F00000E0AE61284605B0F0BD00004175746F72
:103700006D617469632067656E65726174656420BC
:103710006D6574610000000010B500F001F810BD87
:1037200010B5FDF760F910BD10B500F001F810BD3F
:1037300010B5040008D1012406E0FDF71FF9006868
:10374000002800D1034880472046FDF71BF90028D8
:10375000F3D010BD1F0B0008F8B582B28BB2040C79
:103760000D0C10465843002126465E43370C3604A4
:103770008019794116466E43370C36048019794119
:1037800026466E438919F8BD30380A2801D2012037
:103790007047002070470000F8B541000D0E7F3DD6
:1037A0000446172D27DAFF273F061349002D0FDAAD
:1037B00000F09EF84100B9421CD800281ADD002C08
:1037C00001DAFC0116E0002C14D07F24E40511E09E
:1037D0000A4EEE4030420ED000F08AF84100B94265
:1037E00008D8002806DD002C03DD0120C005E840D4
:1037F0000419B4432046F8BDCAF24971FFFF7F00A7
:10380000D2B000BFFEF70CFD2F4A30A112A8FCF782
:103810009DFDFFF7ACFA6420FEF7E0F8FFF794FC9B
:10382000FFF756FCFFF7A4FC2B482C49086000204A
:103830004860C8608860082008612948FEF795F84C
:1038400002212748FDF7AAFB26490EA8FFF726FB11
:1038500000BF09210EA8FFF7CCFA08A8FFF708FC63
:10386000002302220FA9013101A8FFF725FF01A9BA
:1038700008A8FFF757FB0021C94308A8FFF712FB70
:10388000044608221848A168FCF786FE1BE00EA833
:10389000FFF7C3FA05466F20C0001049086000BF5B
:1038A0000F48FDF79FFD0028FAD0104B0E4A0B4938
:1038B0000B48FDF789FB002802D00A20FEF78EF89E
:1038C0002846FFF729FFE2E7AC3B00084C696D6929
:1038D0007420253038580A0077030000B400002017
:1038E00038000020600000200000002010000020B0
:1038F00070B501250400ED074C4020D4441A01D2D4
:10390000001B0919C60D4B00F2B2FF2A29D01B0E6D
:103910002CD000020C02D31A2C43DC40284305199A
:1039200010D2280A02D3401C6D0611D0761EF6056F
:103930008019FF2A00DA70BDC00DC00570BD694056
:1039400000F04CF801200543C541521C761CE8E705
:1039500064089C40C90161408900E7D10124A0436B
:10396000E4E71B0E440200D0034870BD002AFCD1DE
:10397000C00FC00770BD00BF0000C07F0123020060
:10398000DB050A430DD4DA4203D49A4207D48842B5
:103990007047D84214D4D94212D48842704780422A
:1039A0007047DA4203D59A42F9D5814270475B00ED
:1039B0004200DA4204D24A00DA4201D28142704720
:1039C00010B5024AFDF7B0F810BD00BF090016049B
:1039D00070B501250400ED074C4022D4441A02D2F0
:1039E0006C40001B0919C60D4B00F2B2FF2A4BD0E8
:1039F0001B0E50D000020C02D31A2C43DC40A8430B
:103A0000051B05D5AD0019D36D08761E521E37D0A3
:103A1000F605280A01D2801970BD70416D0603D0E9
:103A200070BD6940FFF76AFF9C4009026140490090
:103A300001D0401E70BD0124A04370BD6D081DD093
:103A400001202B0C01D12D0410302B0E01D12D02A1
:103A500008302B0F01D12D01001DAB0F01D1AD009E
:103A6000801CEB0F01D16D00401C6D00361A121A3C
:103A7000680AF5054019012A02DB70BD002070BDFF
:103A8000C036300AC00770BD1B0E440201D1FF2BA7
:103A900000D1024870BD002AF0D070BD0000C07F88
:103AA00002030405060708090A0B0C0D0E0F10107F
:103AB0000102030405060708090A0B0C0D0E0F107E
:103AC00000000000000000000102030406070809CE
:103AD0000000000001020304303132333435363740
:103AE0003839414243444546403058003031323342
:103AF0003435363738396162636465664030780042
:103B000004000008000000000000000200010000A6
:103B1000108182838485868788898B8C8D8E8F9196
:103B20009293959697999A9C9D9FA0A2A3A5A7A8CA
:103B3000AAACAEB0B2B3B5B7B9BCBEC0C2C5C7C9F6
:103B4000CCCED1D4D7D9DCDFE2E6E9ECF0F3F7FA5A
:103B5000FE000000743B0008000000203800000058
:103B600004010008AC3B00083800002030070000CA
:103B7000200100080000000000000000000000001C
:103B80000000000000000000AC3B00080000000046
:103B9000040000000100000000127A00000000088C
:0C3BA000000400004000000001000000D4
:04000005080000C12E
:00000001FF
