:020000040800F2
:1000000038070020B5010008C5280008C1280008ED
:1000100000000000000000000000000000000000E0
:10002000000000000000000000000000CB280008D5
:100030000000000000000000C9280008CD280008CA
:10004000E5010008E5010008E5010008E5010008F8
:10005000E5010008E5010008E5010008E5010008E8
:10006000E5010008E5010008E5010008E5010008D8
:10007000E5010008E5010008E5010008E5010008C8
:10008000E50100080000000000000000E501000894
:1000900000000000E5010008E5010008E501000896
:1000A00000000000E5010008E5010008E501000886
:1000B000E501000800000000F50B0008E50100085C
:1000C00000F002F800F04AF80CA030C808382418F4
:1000D0002D18A246671EAB4654465D46AC4201D180
:1000E00000F03CF87E460F3E0FCCB6460126334268
:1000F00000D0FB1AA246AB46334318472830000015
:1001000048300000103A02D378C878C1FAD85207B4
:1001100001D330C830C101D504680C6070470000BD
:100120000023002400250026103A01D378C1FBD813
:10013000520700D330C100D50B60704710B5782945
:1001400002D100F02FF910BD002010BD1FB500989E
:10015000019900F0D2FB1FBD10B510BD00F06CFC82
:100160001146FFF7F3FF02F03FFF00F0A3FC03B4DA
:10017000FFF7F2FF03BC00F059FC000070B5054624
:100180000C46164602E00FCC0FC5103E102EFAD2D8
:10019000082E02D303CC03C5083E042E07D301CC9E
:1001A00001C5361F03E021782970641C6D1C761E82
:1001B000F9D270BD0F4880F308880F480168090E16
:1001C0000E4A914205D10E480E4901600E480F4972
:1001D00001600F4880470F480047FEE7FEE7FEE753
:1001E000FEE7FEE7FEE700000B480C490C4A0D4B0A
:1001F0007047000038070020040000001F000000C6
:100200001810024001000000000001400000000042
:10021000D5280008C1000008380100203807002058
:100220003803002038030020FEB5054610460C4672
:10023000184373D0AE468C460020AD1A01469C414F
:1002400067D36646002701243D46B61A9D4102D376
:1002500013463A462124654676462F04360C3E4323
:100260002D0CB61A9D4104D3150C1B042B4312040C
:100270001034654676462F06360A3E432D0AB61AD6
:100280009D4104D3150E1B022B4312020834654610
:1002900076462F0736093E432D09B61A9D4104D3F1
:1002A000150F1B012B431201241D65467646AF072F
:1002B000B6083E43AD08B61A9D4104D3950F9B0086
:1002C0002B439200A41C65467646EF0776083E4312
:1002D0006D08B61A9D411AD392185B41641C16E052
:1002E0000018764665464941B71A9D410191009034
:1002F00009D36046B11A98418E4684460098019908
:100300000025401C6941DD0752082A435B08641E32
:10031000E6D57246634603B0F0BDFFE70020014614
:10032000C046C0462A462346F5E700000FB41CB578
:10033000074B06AA7B4469460090059800F09FFA97
:100340000020694600F0AEFA1CBC08BC04B0184797
:100350006D05000070B5044685690068C10601D5C9
:10036000302600E02026C00707D070BD6268304606
:10037000A1689047206A401C20626D1EF6D570BDB2
:1003800070B5044685690078C00707D170BD626802
:10039000A16820209047206A401C20626D1EF6D57F
:1003A00070BD000070B504460D4621461068C04679
:1003B000C0462188090502D50F4A7A4402E00E4A58
:1003C0007A440E3223460021243305E00607000953
:1003D000360F965D5E54491C0028F7D12078002323
:1003E000000705D5702D03D0002901D0022311325A
:1003F000204600F0E6F970BD2A2D0000F3B5044652
:10040000002081B020622046E168884700287DD026
:10041000252802D06268A16883E0454F00257F440B
:100420002046E16888472028064608DB312E06D2A0
:10043000B81920380078002801D00543F0E7A80754
:1004400001D5042085430020E0610746A0612A2EE3
:100450000AD0304602F0C0FD002827D0B8000019AD
:10046000303E0090866119E00298BA00121902C865
:10047000916102902046E1688847012F064617D116
:10048000E06900281FDA202085431CE000980A213B
:100490008069484300998019303888612046E168B6
:1004A0008847064602F098FD0028EFD1012F0AD0B8
:1004B0002E2E08D12046E1688847064620200543B5
:1004C0007F1C022FC3DBA069002803DA4042A06131
:1004D00001200543E80701D010208543002E24D0D9
:1004E00030464138192803D80120C0020543203680
:1004F000204625603146029A1546FFF71FFE002868
:100500000CD0012807D0ED1DE80800E00DE0C00088
:100510000830029077E72D1D029574E76268304637
:10052000A1689047206A401C6CE7206AFEBD00006D
:10053000EE2C0000F8B5042A2CD3830712D00B78D8
:10054000491C0370401C521E83070BD00B78491CBA
:100550000370401C521E830704D00B78491C0370A3
:10056000401C521E8B079B0F05D0C91ADF002023A9
:10057000DE1B08C90AE0FFF701FEF8BD1D4608C9E9
:10058000FD401C46B4402C4310C0121F042AF5D273
:10059000F308C91A521EF0D40B78491C0370401C92
:1005A000521EEAD40B78491C0370401C012AE4D483
:1005B00009780170F8BD01E004C0091F0429FBD2CD
:1005C0008B0701D50280801CC90700D002707047DC
:1005D00000290BD0C30702D00270401C491E02291B
:1005E00004D3830702D50280801C891EE3E7002222
:1005F000EEE70022DFE7002203098B422CD3030A37
:100600008B4211D300239C464EE003460B433CD45F
:10061000002243088B4231D303098B421CD3030AC7
:100620008B4201D394463FE0C3098B4201D3CB01F7
:10063000C01A524183098B4201D38B01C01A524127
:1006400043098B4201D34B01C01A524103098B422B
:1006500001D30B01C01A5241C3088B4201D3CB0016
:10066000C01A524183088B4201D38B00C01A5241F9
:1006700043088B4201D34B00C01A5241411A00D2A9
:1006800001465241104670475DE0CA0F00D0494212
:10069000031000D34042534000229C4603098B4282
:1006A0002DD3030A8B4212D3FC22890112BA030A0A
:1006B0008B420CD3890192118B4208D3890192118C
:1006C0008B4204D389013AD0921100E08909C30911
:1006D0008B4201D3CB01C01A524183098B4201D313
:1006E0008B01C01A524143098B4201D34B01C01AFE
:1006F000524103098B4201D30B01C01A5241C30876
:100700008B4201D3CB00C01A524183088B4201D3E4
:100710008B00C01A5241D9D243088B4201D34B00FF
:10072000C01A5241411A00D20146634652415B1041
:10073000104601D34042002B00D549427047634622
:100740005B1000D3404201B50020C046C04602BD48
:10075000704770477047000000487047080100204C
:1007600070B5064600F0ACF8056830460B30C4089A
:10077000E400B44201D8002070BD68682A46002811
:1007800018D00168A14211D30B46214608318B4293
:1007900008D3436801194B6003681B1B0B60516051
:1007A000046001E041685160001D70BD0246406870
:1007B0000028E6D12146284600F08AF80028DCD13E
:1007C00070BDFFB504460D4681B02430009021680D
:1007D000880604D51022E0699143216000E00120E1
:1007E000A84201DD471B00E000270498A1697A199F
:1007F0001018081AA0612078C00602D42046FFF71E
:10080000A9FD002608E003986268A168805D904712
:10081000206A401C761C206204988642F3DB207814
:10082000C0060AD52046FFF795FD06E06268A1687C
:1008300030209047206A401C206238467F1E0028E6
:10084000F4DC07E000986268A168405D9047206A88
:10085000401C206228466D1E0028F3DC2046FFF76E
:100860008FFD2078000602D5022005B0F0BD0120E2
:10087000FBE7000001694A1C02610878704700B577
:100880008FB00291002105910549019379440391AC
:10089000114604906846FFF7B1FD0FB000BD00009F
:1008A000E5FFFFFF0A681070521C0A60704710B520
:1008B00000F083F810BD000000487047D40000200D
:1008C00000487047DC000020704770477047704751
:1008D00038B504460A4600206946C046C04600288E
:1008E00005D002462046009900F0CAF8012038BD24
:1008F00010B5012000F00AF910BDF8B5C046C04699
:10090000054600200C461020C0460646A819A04205
:100910000DD9324669460020C046C046070001D1C5
:1009200000F0F4F80098A04200D00546C419FFF783
:10093000C7FFF61D07460560F008C00046192846A7
:1009400000F008F8B44204D031463868A21B00F029
:1009500097F8F8BD00210160416080607047102069
:10096000704770B50446051FFFF7AAFF0068002C0A
:100970001AD0446801E020466468002C01D0AC42E3
:10098000F9D301680A18AA4204D12A6805468918D1
:10099000016000E0456028684119A14205D1616805
:1009A000696021684018286070BD6C6070BD10B52A
:1009B000002801D000F03AF810BD10B500F00FF893
:1009C0000169002903D000220261884701E08068A4
:1009D000804700F077F8000010B500F073F870B5AC
:1009E00000F04AF804680546002C15D12020FFF7D6
:1009F000B7FE040012D0002009492C6003C4094945
:100A000021602071A060E06007492061083C002956
:100A100001D000F081F8E061204670BD00F052F88E
:100A200000000000D909000800000000014918205A
:100A3000ABBEFEE7260002007546FFF73DFFAE465F
:100A4000050069465346C008C000854618B020B569
:100A5000FFF7CAFB60BC00274908B6460026C0C5A0
:100A6000C0C5C0C5C0C5C0C5C0C5C0C5C0C5403D66
:100A700049008D4670470000004870471001002073
:100A800010B50346406801E003464068002801D0E5
:100A90008842F9D31868C3188B4206D0CB1CD808FB
:100AA000C000001D411A521A0146081D0A60FFF7D6
:100AB00058FF10BD10B50446C046C0462046FFF79B
:100AC00056FB10BD10B5002000F04EF8FFF744FBB8
:100AD0000120FFF7ABFF10BD70B505460C460A209C
:100AE00000E06D1C00F039F8002D06D028780028B1
:100AF000F7D102E0641C00F030F8002C02D020781E
:100B00000028F7D10A2000F028F870BD10B500F0D9
:100B100031F8FFF74CFF10BD10B58820FFF720FE1D
:100B2000002801D00021017010BD802904D80028C0
:100B300002D00178002901D0002070470121017006
:100B400008307047002803D002460832914201D095
:100B50000020704700210170704708B56946087091
:100B60000320ABBE08BD704710B500F02BF8FFF7AF
:100B70001EFF10BD10B5012805D0002103A0FFF70E
:100B8000ABFF012010BD09A1F8E70000534947520F
:100B9000544D454D3A204F7574206F66206865614D
:100BA00070206D656D6F7279000000003A20486515
:100BB0006170206D656D6F727920636F72727570F0
:100BC0007465640010B5002102A0FFF785FF0120C5
:100BD00010BD0000534947414252543A2041626ED1
:100BE0006F726D616C207465726D696E6174696F8E
:100BF0006E00000010B5024800F04DFA10BD000074
:100C00002400002072B600BFFEE710B50246202087
:100C1000835C012B01D0022B06D110684069084388
:100C200014686061002010BD506A0124A4042043B0
:100C300050620120F7E7FFB581B004460D46202041
:100C4000005D009020688368A868002800D100E05B
:100C500000BF0098012802D0009802287FD101200F
:100C600080061840002809D10120C006184000283D
:100C700004D1012000071840002869D00320000695
:100C80001840010E01208840049E3060A8680028AA
:100C900009D128884005EE6830432668FF36813642
:100CA0000F01F0510AE06868C000AE683043EE689A
:100CB00030432668FF3681360F01F0512E692068D7
:100CC000FF3081300F01C0194660287D01280ED108
:100CD0002068FF3081300E0180194068FF26013600
:100CE00030432668FF3681360F01F6197060D079DF
:100CF0000006967936043043567936023043167929
:100D000030432668FF3681360F01F619F060D0783F
:100D1000000696783604304356783602304316780B
:100D200006432068FF3081300F01C01986602068BB
:100D3000FF3081300E018059012630432668FF368E
:100D400081360F01F051002005B0F0BD07E0FFE74C
:100D5000606A01267605304360620120F4E7606A2C
:100D60000126B604304360620120EDE7F0B5044689
:100D70000A4621682020055D012D01D0022D71D188
:100D80000120400240580126304376027050107D09
:100D9000C606F60E0123B3408720800040589843D2
:100DA0008726B6007050D06900281DD183208000AE
:100DB000405898438326B600705090890004968866
:100DC000B6B230435669F6000927BF01CF19B851B2
:100DD000108900041688B6B230435669F600092718
:100DE000BF01CF19F6197060D06901281DD1832089
:100DF0008000405818438326B600705010880004C5
:100E00009688B6B230435669F6000927BF01CF195C
:100E1000B851108900049689B6B230435669F6007D
:100E20000927BF01CF19F61970609069002807D112
:100E300081208000405898438126B600705006E01B
:100E400081208000405818438126B60070501069F8
:100E5000002808D185208000405898438526B60098
:100E6000705007E01AE0852080004058184385261E
:100E7000B6007050106A012806D1872080004058C3
:100E800018438726B600705001204002405846089B
:100E900076000120400246500020F0BD606A012625
:100EA000B604304360620120F7E7704770B504462E
:100EB0002020055D012D01D0022D7DD100290CD10E
:100EC0002068C0688007800F002813D1606A01265F
:100ED000760530436062012070BD2068006980079C
:100EE000800F002806D1606A0126760530436062D3
:100EF0000120F1E72068FF30B1300E01805904264F
:100F0000304090609068002807D12068FF30B130F1
:100F10000E018059400D106006E02068FF30B130AE
:100F20000E018059C00850602068FF30B1300E01BA
:100F3000805902263040D0602068FF30B1300E0169
:100F4000801940680007000F082802D308201061AC
:100F500008E02068FF30B1300E01801940680007BA
:100F6000000F10612068FF30B1300E018019406819
:100F7000FF2636023040000A90612068FF30B13011
:100F80000E0180194068000C50612068FF30B130BC
:100F90000E018019806818702068FF30B1300E0192
:100FA00080198068FF2636023040000A5870206899
:100FB000FF30B1300E0100E044E080198068FF2668
:100FC00036043040000C98702068FF30B1300E01BC
:100FD00080198068000ED8702068FF30B1300E0193
:100FE0008019C06818712068FF30B1300E01801977
:100FF000C068FF2636023040000A58712068FF3072
:10100000B1300E018019C068FF2636043040000C54
:1010100098712068FF30B1300E018019C068000E51
:10102000D871002906D12068C06820263043266880
:10103000F06005E0206800692026304326683061B2
:10104000002049E7606A0126B6043043606201204F
:1010500042E710B50146002020235A5C012A01D046
:10106000022A17D10B689B680124A4062340002B99
:1010700000D0401C0B689B680124E4062340002B31
:1010800000D0401C0B689B68012424072340002BE0
:1010900000D0401C10BDF0B585B004460025206886
:1010A0004669206840680390206887682068C068A7
:1010B0000290206800690190206880690090F00724
:1010C000C00F00286DD0F807C00F00281DD00120E8
:1010D0002168886002203840002803D0204600F0B4
:1010E000AEFA12E004203840002803D00120C002EC
:1010F00005430AE008203840002803D001200003FF
:10110000054302E0204600F099FAFF200130384004
:10111000002820D0FF20013021688860400038403E
:10112000002803D0204600F08CFA14E00120800251
:101130003840002803D00120400305430BE0012084
:10114000C0023840002803D001208003054302E09C
:10115000204600F075FA012000043840002820D015
:10116000012000042168886040003840002803D036
:10117000204600F068FA14E001208004384000287E
:1011800003D00120C00305430BE00120C004384018
:10119000002803D001200004054302E0204600F0AF
:1011A00051FA08203040002809D010210298084048
:1011B000002804D04801054310202168C86004209D
:1011C000304000280AD0082102980840002805D0A5
:1011D00008202168C860204600F0D4F90220304081
:1011E000002808D02068C0688007800F002802D03F
:1011F000204600F0C9F940203040002809D01021D5
:1012000001980840002804D0880105431020216877
:1012100008612020304000280AD0082101980840A9
:10122000002805D0082021680861204600F0D2F986
:1012300010203040002808D0206800698007800F07
:10124000002802D0204600F0C6F9012040043040BA
:1012500000280AD0102103980840002805D010204B
:1012600021684860204600F0B7F9012000043040B2
:1012700000280AD0082103980840002805D008203B
:1012800021684860204600F0DFF90120C0033040AB
:10129000002860D0042103980840002858D0880115
:1012A0003040002806D00098C007C00F002801D0A9
:1012B00001200543012040023040002806D00221D1
:1012C00000980840002801D0022005430120800238
:1012D0003040002806D0042100980840002801D0A2
:1012E000042005430120C0023040002830D0702186
:1012F0000098084000282BD000980840402815D0BE
:1013000006DC102809D020280AD0302818D10AE09D
:1013100050280ED0602813D10EE00820054310E0BD
:10132000102005430DE0202005430AE0402005433E
:1013300007E08020054304E0FF200130054300E082
:1013400000BF00BF206880697021884321688861E0
:10135000042021684860002D05D0606A284360623F
:101360002046FFF7A2FD05B0F0BD70B50446002C85
:1013700001D1012070BD2020005D002802D120464F
:1013800000F0B8F82068006801210843216808606F
:1013900000F062FA0546206800680221884321684F
:1013A00008600EE000F058FA401B0A2809D9606A6C
:1013B00001214904084360620521202001550120D4
:1013C000D8E720684068C007C00F0028EAD020682E
:1013D0000068022188432168086000F03DFA054654
:1013E0000EE000F039FA401B0A2809D9606A012191
:1013F0004904084360620521202001550120B9E716
:1014000020684068022108400028EAD1207E012897
:1014100006D120680068802108432168086005E043
:10142000206800688021884321680860607E012868
:1014300006D120680068402108432168086005E063
:10144000206800684021884321680860A07E012848
:1014500006D120680068202108432168086005E063
:10146000206800682021884321680860E07E012808
:1014700006D120680068102188432168086005E0D3
:10148000206800681021084321680860207F012837
:1014900006D120680068082108432168086005E03B
:1014A000206800680821884321680860607F01285F
:1014B00006D120680068042108432168086005E01F
:1014C000206800680421884321680860E168A068FA
:1014D000084321690843616908436168491E08435C
:1014E0002168C86100206062012120200155002090
:1014F00040E7000010B586B00446142101A8FFF7AC
:1015000078F81E492068884236D100BF1C48C0695F
:101510000121490608431A49C8610846C0690121EA
:1015200049060840009000BF00BF00BF1448406952
:1015300009120843124948610846406901214904DB
:101540000840009000BF00BF0320C00201900220AD
:10155000029000200390032004900420059001A92C
:101560000920C00600F088F8002211461E2000F075
:1015700075FC1E2000F064FC06B010BD0064004045
:10158000001002407047000010B504460F4B104A8F
:1015900000212046FFF78AFC002815D10B4800786F
:1015A000002804D0012805D0022809D105E001F067
:1015B000D4F908E001F090F905E001F08CF902E0BF
:1015C00001F0CCF900BF00BF10BD000008000020F2
:1015D000B800002070477047704770B5044620205F
:1015E000005D012823D102212020015520680068D8
:1015F000400840002168086000F02EF905460EE022
:1016000000F02AF9401B0A2809D9606A012149041F
:1016100008436062052120200155012070BD20682B
:101620004068C007C00F0028EAD16062F6E7606A30
:101630000121C904084360620120EFE77047704749
:1016400070477047704770477047000070B5044698
:1016500000F002F906462546681C002802D005481D
:1016600000782D1800BF00F0F7F8801BA842FAD3CD
:1016700070BD00001C00002078B503460A4600211A
:10168000DAE001268E4014683440002C7ED01579B3
:10169000AD07AD0F012D04D01579AD07AD0F022DAB
:1016A00018D198684E000325B5400646AE43304633
:1016B0004E00D568B54028439860586801258D4094
:1016C0000646AE4330461026556835402D098D40FC
:1016D000284358601579AD07AD0F032D0BD0D8689E
:1016E0004E000325B5400646AE4330464E00956891
:1016F000B5402843D8601579AD07AD0F022D15D13F
:10170000CD08AE001D462035A8594D07EE0E0F2519
:10171000B5400646AE4330464E07F60E1569B54055
:101720002843CD08AD001E462036705118684E0083
:101730000325B5400646AE4330461579AD07AD0FDB
:101740004E00B540284318600326360455683540DE
:10175000002D70D000BF3B4DAD6901263543394E99
:10176000B5613546AD69ED07ED0F009500BF00BFCF
:10177000354D8E08B600A8598D072E0F0F25B540A0
:101780000646AE4330460925ED0600E053E0AB4285
:1017900001D100250AE02D4DAB4201D1012505E024
:1017A0002B4DAB4201D1022500E005258E07360FF7
:1017B000B5402843244D8E08B600A851254DA86891
:1017C0000546A54328460126360555683540002DB7
:1017D00002D00546254328461E4DA860E868054608
:1017E000A54328460126760555683540002D02D0D0
:1017F000054625432846174DE86068680546A54319
:1018000028460126760455683540002D02D005464D
:10181000254328460F4D686028680546A54328469D
:101820000126360455683540002D02D00546254373
:101830002846084D2860491C1568CD40002D00D071
:101840001FE778BD00100240080001400004004876
:10185000000800480004014001480068704700008B
:101860001400002002464120805C20282FD100BFB8
:101870004020805C012801D10220704701234020D4
:10188000835400BF2423412083541068006840081B
:101890004000136818601068006801231B03984318
:1018A00013681860106800680843136818601068AF
:1018B00000680123184313681860202341208354D3
:1018C00000BF00234020835400BF0020D5E7022042
:1018D000D3E710B502460B464120805C20282ED16C
:1018E00000BF4020805C012801D1022010BD0124EE
:1018F0004020845400BF2424412084541068006890
:101900004008400014682060106801680F24240219
:101910000846A043014618020143106801601068A0
:10192000006801242043146820602024412084544E
:1019300000BF00244020845400BF0020D6E70220CE
:10194000D4E7000010B50446002C01D1012010BDE1
:101950004120005D002805D100214020015520468E
:1019600000F0C6F924214120015520680068400894
:101970004000216808600F210906606888432168DB
:101980000861206880680121C90388432168886054
:10199000E068012806D10121C903A0680843216835
:1019A000886005E021218902A068084321688860D9
:1019B000E068022802D180022168486020684068FF
:1019C00014490843216848602068C0680121C903A0
:1019D00088432168C860616920690843A1690902D8
:1019E00008432168C860216AE069084321680860EB
:1019F00020680068012108432168086000206064B5
:101A00002021412001550020206300214220015562
:101A100000209CE700800002FFB581B00446164616
:101A20001F464120005D202877D100BF4020005D87
:101A3000012802D1022005B0F0BD0121402001554E
:101A400000BFFFF709FF054619230122D1032046F5
:101A5000009501F041F9002801D00120EBE7222197
:101A6000412001551021422001550020606466622A
:101A700067856063608DFF280BD9FF2020853F4874
:101A80000090208DC2B20B052046029901F058F853
:101A90000BE0608D208539480090208DC2B2012373
:101AA0005B062046029901F04BF843E02A462046A7
:101AB0000A9901F047F9002801D00120BBE720680E
:101AC000406A616A0870606A401C6062208D401E36
:101AD0002085608D401E6085608D00282AD0208D75
:101AE000002827D100950022802120460A9B01F082
:101AF000F3F8002801D001209DE7608DFF280DD963
:101B0000FF20208500200090208DC2B201231B06FB
:101B10002046029901F014F80CE02CE0608D20853D
:101B200000200090208DC2B201235B06204602995E
:101B300001F006F8608D0028B8D12A4620460A999F
:101B400001F06CF9002801D0012074E72020216801
:101B5000C861206840680A4908402168486020211F
:101B60004120015500214220015500BF4020015570
:101B700000BF00205FE702205DE700000024008036
:101B800000E800FEFFB581B0044616461F4641201E
:101B9000005D202877D100BF4020005D012802D1E0
:101BA000022005B0F0BD01214020015500BFFFF724
:101BB00053FE054619230122D1032046009501F06A
:101BC0008BF8002801D00120EBE7212141200155AD
:101BD00010214220015500206064666267856063C1
:101BE000608DFF280BD9FF2020853F480090208D75
:101BF000C2B20B052046029900F0A2FF0BE0608DF7
:101C0000208539480090208DC2B201235B06204612
:101C1000029900F095FF43E02A4620460A9901F018
:101C200030F9002801D00120BBE7606A0078216804
:101C30008862606A401C6062608D401E6085208DF5
:101C4000401E2085608D00282AD0208D002827D1B5
:101C500000950022802120460A9B01F03DF80028D3
:101C600001D001209DE7608DFF280DD9FF20208540
:101C700000200090208DC2B201231B06204602994D
:101C800000F05EFF0CE02CE0608D208500200090CD
:101C9000208DC2B201235B062046029900F050FF5E
:101CA000608D0028B8D12A4620460A9901F0B6F87E
:101CB000002801D0012074E720202168C861206835
:101CC00040680A49084021684860202141200155A8
:101CD00000214220015500BF4020015500BF0020D7
:101CE0005FE702205DE700000020008000E800FEC2
:101CF00010B586B00446142101A8FEF77AFC1B49F2
:101D0000206888422FD100BF194840690121490449
:101D100008431749486108464069012149040840C1
:101D2000009000BF00BF03204002019012200290EB
:101D300000200390032004900420059001A90920AD
:101D4000C006FFF799FC00BF0948C0690121490599
:101D500008430749C8610846C06901214905084090
:101D6000009000BF00BF06B010BD0000005400404E
:101D700000100240034800680349097840180149EF
:101D800008607047140000201C00002010B50648B1
:101D900000681021084304490860032000F006F899
:101DA00000F02EF8002010BD0020024070B504465F
:101DB000104801787D20C000FEF71DFC0646314624
:101DC0000D480068FEF717FC054600F05DFD002891
:101DD00001D0012070BD042C07D200222146501EE4
:101DE00000F03CF80548046001E00120F2E7002023
:101DF000F0E700001C000020200000201800002058
:101E000008B500BF0D488069012108430B4988616E
:101E100008468069C007C00F009000BF00BF00BF28
:101E20000846C069090408430449C8610846C069F6
:101E300009040840009000BF00BF08BD0010024028
:101E40000146002905DBCB06DB0E01229A40024B3E
:101E50001A6000BF7047000000E100E070B5044662
:101E60000D4616462946204601F042F870BD000096
:101E7000F8B5044600260025012109042068084021
:101E800088427AD100275948C069090308400028D0
:101E90000DD100BF5548C06908435449C861084680
:101EA000C06909040840009000BF00BF01275048E6
:101EB0000068FF2101310840002816D14C48006815
:101EC00008434B490860FFF7C7FC064606E0FFF7EA
:101ED000C3FC801B642801D90320F8BD4448006876
:101EE000FF21013108400028F1D04048006A032159
:101EF000090208400546002D2DD060680840A84220
:101F000029D03A48006A884305463848006A0121CA
:101F100009040843354908620846006A012109049A
:101F200088433249086208460562E807C00F002866
:101F300011D0FFF791FC064607E0FFF78DFC801BF0
:101F40002C49884201D90320C7E72848006A0221AA
:101F500008400028F1D02548006A0321090288437F
:101F60006168084321490862012F05D10846C0690C
:101F7000090488431D49C86100BF2078C007C00F0D
:101F8000002807D01948006B80088000A16808432A
:101F900016490863202120680840202807D11348EB
:101FA000006B10218843E168084310490863012150
:101FB000490420680840884207D10C48006B802102
:101FC000884361690843094908630121890220683F
:101FD0000840884207D10548006B402188432169A9
:101FE000084302490863002077E700000010024020
:101FF000007000408813000070B504460D46002CA8
:1020000001D1012070BD58480068C007C00FA84228
:102010000ED25548006840084000284352490860E5
:1020200008460068C007C00FA84201D00120E9E7B8
:10203000022120680840022814D1042120680840A9
:10204000042807D1494840680721090288434018FD
:102050004649486045484068F0218843A1680843E4
:10206000424948602078C007C00F002847D0606808
:10207000012808D13D480068012149040840002892
:1020800021D10120BEE76068022808D137480068E6
:10209000012149060840002815D10120B2E76068F7
:1020A000032808D13148406B012149040840002829
:1020B00009D10120A6E72D48006802210840002828
:1020C00001D101209EE729484068800880006168AE
:1020D000084326494860FFF7BFFB064607E0FFF7C5
:1020E000BBFB801B2249884201D903208AE71F4895
:1020F00040680C210840616889008842EFD11A4885
:102100000068C007C00FA8420ED9174800684008F1
:10211000400028431449086008460068C007C00F03
:10212000A84201D001206DE704212068084004285E
:1021300008D10E484068072109028843E168084336
:102140000A49486000F01AF808494968F02211402D
:102150000909084A515CC840074908600320FFF795
:1021600025FE00204EE70000002002400010024043
:1021700088130000D030000820000020F8B50025AA
:10218000002400270026002000902B4845680C20E2
:102190002840002848D0042804D0082805D00C285E
:1021A00043D13EE02548009042E00F2080042840C3
:1021B000800C23490E5C2048C06A0007000F2149AB
:1021C0000C5C0320C00328400121090488420AD185
:1021D0002246002319481946FEF726F8314600F03A
:1021E000E3FE07461BE00320C00328400321C90388
:1021F00088420AD12246002313481946FEF714F8F4
:10220000314600F0D1FE074609E0224600230B4884
:102210001946FEF709F8314600F0C6FE074600975A
:1022200006E00948009003E000BF0448009000BFAA
:1022300000BF0098F8BD00000010024000127A00B4
:10224000B0300008C0300008006CDC02FEB5044667
:10225000002C01D10120FEBD2078C007C00F00284E
:1022600072D0FC4840680C21084004280CD0F94882
:1022700040680840082813D1F648406849030840E0
:102280000121090488420BD1F24800680121490468
:10229000084000286BD06068002868D10120DAE788
:1022A00000BF6068012807D1EA48006801210904DD
:1022B0000843E849086031E0606800280ED1E5482D
:1022C0000068012109048843E24908600846006863
:1022D000012189048843DF4908601FE06068052800
:1022E0000ED1DC480068012189040843D9490860FF
:1022F00008460068012109040843D64908600DE03A
:10230000D4480068012109048843D249086008467E
:102310000068012189048843CE49086000BF6068D5
:10232000002812D0FFF798FA054606E0FFF794FA66
:10233000401B642801D903208DE7C64800680121AD
:10234000490408400028F1D011E0FFF785FA05465E
:1023500006E0FFF781FA401B642801D903207AE7E1
:10236000BC4800680121490408400028F1D102213D
:1023700020680840022862D1B64840680C21084015
:1023800000280CD0B3484068084008281CD1B14848
:102390004068490308400121C903884214D1AD486F
:1023A000006802210840002804D0E068012801D01C
:1023B000012050E7A7480068F82188432169C90037
:1023C0000843A44908603AE0E068002820D0A1480A
:1023D0000068012108439F490860FFF73DFA054660
:1023E00006E0FFF739FA401B022801D9032032E743
:1023F00098480068022108400028F2D095480068FB
:10240000F82188432169C90008439249086016E011
:1024100090480068400840008E490860FFF71CFAA9
:10242000054606E0FFF718FA401B022801D90320F1
:1024300011E788480068022108400028F2D10821ED
:1024400020680840082831D1E069002817D0814869
:10245000406A012108437F494862FFF7FDF90546BC
:1024600006E0FFF7F9F9401B022801D90320F2E644
:102470007848406A022108400028F2D016E07548EA
:10248000406A4008400073494862FFF7E5F9054695
:1024900006E0FFF7E1F9401B022801D90320DAE644
:1024A0006C48406A022108400028F2D104212068CB
:1024B0000840042872D1002001906648C06989064E
:1024C000084000280ED100BF6248C0690843614936
:1024D000C8610846C06909040840009000BF00BFF9
:1024E000012001905C480068FF210131084000286C
:1024F00016D159480068084357490860FFF7ACF9FE
:10250000054606E0FFF7A8F9401B642801D903201F
:10251000A1E651480068FF21013108400028F1D0B0
:1025200000BFA068012806D14A48006A012108437B
:10253000484908622AE0A06800280BD14548006A93
:102540004108490043480162006A04218843414927
:1025500008621BE0A06805280CD13E48006A0421EF
:1025600008433C4908620846006A0121084339498A
:1025700008620BE03748006A4008400035490862AD
:102580000846006A042188433249086200BFA068F7
:10259000002813D0FFF760F9054608E02BE0FFF7AD
:1025A0005BF9401B2D49884201D9032053E6294895
:1025B000006A022108400028F1D011E0FFF74CF931
:1025C000054607E0FFF748F9411B2448814201D93D
:1025D000032040E61F48006A022108400028F1D18C
:1025E0000198012806D11B48C069012109078843C9
:1025F0001849C86100BF10212068084010285FD129
:10260000606901282CD11348406B0421084311490B
:1026100048630846406B012108430E494863FFF7B1
:102620001BF9054606E0FFF717F9401B022801D900
:10263000032010E60748406B022108400028F2D032
:102640000448406BF8218843A169C9000843014947
:10265000486335E00010024000700040881300001D
:102660006069401D00280FD18648406B04218843D3
:10267000844948630846406BF8218843A169C90032
:102680000843804948631BE07E48406B04210843AF
:102690007C4948630846406B400840004863FFF7A8
:1026A000DBF8054606E0FFF7D7F8401B022801D902
:1026B0000320D0E57348406B022108400028F2D186
:1026C000202120680840202852D16E4840680C2103
:1026D00008400C280AD06B4840680840082811D1EF
:1026E000684840684903084088420BD16548406B00
:1026F00001214904084000283AD0206A012837D037
:102700000120A8E5206A002819D05E48406B01210D
:10271000090408435B494863FFF79EF8054606E055
:10272000FFF79AF8401B022801D9032093E555488A
:10273000406B0121490408400028F1D018E05148BD
:10274000406B0121090488434E494863FFF784F830
:10275000054606E0FFF780F8401B022801D9032058
:1027600079E54848406B0121490408400028F1D12F
:10277000606A00284FD0434840680C210840082870
:1027800064D0606A022847D13E48006801210906EA
:1027900088433C490860FFF75FF8054606E0FFF70D
:1027A0005BF8401B022801D9032054E53548006836
:1027B0000121490608400028F1D100BF3148C06A14
:1027C00000090001216B08432E49C862A16AE06A32
:1027D00008432C4949687B22D20391430843294985
:1027E000486000BF084600680121090608432549E2
:1027F0000860FFF731F8054606E0FFF72DF8401BAB
:10280000022801D9032026E51E4800680121490657
:1028100008400028F1D033E01A4800680121090679
:10282000884318490860FFF717F8054606E0FFF7E8
:1028300013F8401B022801D903200CE51148006859
:102840000121490608400028F1D119E0606A0128F9
:1028500000D100E50B484668C76A0320C00330403A
:10286000A16A88420AD13907090F206B814205D13C
:102870000F2080043040E16A884201D00120EAE460
:102880000020E8E40010024070B504462546681EAA
:102890000949884201D901200CE0681E07494861B6
:1028A0000321081F00F024FB002004498861072051
:1028B0000861002070BD0000FFFFFF0000E000E0A5
:1028C00000BFFEE700BFFEE77047704710B5FFF797
:1028D00051FA10BD70477047704700B597B034216A
:1028E0000AA8FDF786FE0020069007900890099040
:1028F00018216846FDF77DFE02200A9001200D9008
:1029000010200E90022013908103149181041591E0
:10291000002116910AA8FFF799FC002801D0FEF7C4
:1029200071F9072006900220079000200890099076
:10293000012106A8FFF760FB002801D0FEF762F92D
:1029400020200090002003906846FFF791FA0028AD
:1029500001D0FEF757F917B000BD7047704713B5A7
:1029600082B00446642000902179012303AA2068E4
:10297000FFF708F96420009021796423621D206824
:10298000FFF74AF81FBD70B504466C2000F0F4FA5A
:10299000054600260AE030463230C1B22046FFF735
:1029A000DEFFB000411960790870761C0D2EF2DD53
:1029B00009212046FFF7D3FF3820617941550D21C9
:1029C0002046FFF7CCFF3C20617941554F2120463E
:1029D000FFF7C5FF40206179415511212046FFF7DF
:1029E000BEFF4420617941550F212046FFF7B7FF14
:1029F00048206179415512212046FFF7B0FF4C2055
:102A000061794155284670BD0160162202717047F8
:102A100000B58BB01A481B490860042048600021AB
:102A200018488160C1600321890401610121090501
:102A30004161002101760121417600218176C17634
:102A4000017701214177FEF790FC002801D0FEF7C5
:102A5000D9F80020069007900120089000200190EE
:102A600002900390049005900120099001A9054867
:102A7000FEF77CF9002801D0FEF7C4F80BB000BDCA
:102A8000006400402400002008B500BF07484069EA
:102A9000012149040843054948610846406901216C
:102AA00049040840009000BF00BF08BD001002406C
:102AB00010B51348134908601348486000211148B5
:102AC00081600121C1600021016141618161C161B9
:102AD0000162FEF737FF002801D0FEF793F80021CE
:102AE0000848FEF7BFFE002801D0FEF78BF8002152
:102AF0000448FEF7EEFE002801D0FEF783F810BD73
:102B0000005400404C0000200E0900200168896933
:102B1000022211404908002902D000210268916276
:102B200001688969C907C90F012251405140002934
:102B300004D10168896911430268916170470000FE
:102B4000F8B5069C8D05AD0D1604FF273F043E40E9
:102B500035431D4325436D006D08009505686E687B
:102B6000650D0127BF023D40034F3D43AE43009D2D
:102B70002E4305686E60F8BDFF63FF03F7B584B0B0
:102B800004460E46002003902068876900250698B9
:102B9000029010203840102854D12168C8613DE0CF
:102BA000701C00283AD0FEF757FE0299401AB04236
:102BB00001D8002E32D120684068012189030840E5
:102BC00001904220005D0090206880694900084023
:102BD000C00B00280ED04910019888420AD00098F6
:102BE000202807D020684068084321684860FEF725
:102BF00033FE02900AE0FEF72FFE0299401A1928D0
:102C000004D9202005430120039006E02068806954
:102C10002021084040090028EDD000BF20688069CD
:102C2000202108404009002802D103980028B7D08D
:102C30000398002802D120202168C86104200543A0
:102C40000120039020688769FF2001303840FF2170
:102C50000131884206D10120054300022168C86184
:102C6000012003900120800238400121890288421E
:102C700006D108200543C0012168C86101200390E6
:102C800001204002384001214902884206D1022039
:102C9000054300022168C8610120039003980028C1
:102CA00015D02046FFF732FF2068406809490840E8
:102CB00021684860606C28436064202141200155F0
:102CC00000214220015500BF4020015500BF03985C
:102CD00007B0F0BD00E800FEF8B504460D46174603
:102CE0001E4623E0701C002820D0FEF7B5FD069993
:102CF000401AB04201D8002E18D1206880692840BF
:102D0000A84201D1012000E00020B8420ED1606C41
:102D100020210843606441200155002142200155D3
:102D200000BF4020015500BF0120F8BD2068806928
:102D30002840A84201D1012000E00020B842D1D0B3
:102D40000020F2E770B504460D4616465AE03246BA
:102D500029462046FFF712FF002801D0012070BD50
:102D60002068806920210840400900282FD0206871
:102D70008069042108408008002804D0208D0028A4
:102D800001D00020EBE7206880691021084000098D
:102D9000002805D010202168C8610420606401E08B
:102DA0000020606420202168C861206840681A49BA
:102DB000084021684860202141200155002142201F
:102DC000015500BF4020015500BF0120C7E7FEF7B5
:102DD00043FD801BA84201D8002D13D120688069D3
:102DE00004210840800800280CD1606C2021084391
:102DF00060644120015500BF00214020015500BF03
:102E00000120ACE720688069042108408008002880
:102E10009DD00020A3E7000000E800FE70B5044646
:102E20000D46164624E0324629462046FFF7A6FE08
:102E3000002801D0012070BDFEF70EFD801BA842C6
:102E400001D8002D14D12068806920210840400954
:102E500000280DD1606C08436064412001550021B9
:102E60004220015500BF4020015500BF0120E2E78C
:102E7000206880692021084040090028D3D0002024
:102E8000D9E770B504460D46164628E03246294675
:102E90002046FFF773FE002801D0012070BD681C9A
:102EA00000281CD0FEF7D8FC801BA84201D8002DBA
:102EB00015D12068806902210840400800280ED101
:102EC000606C2021084360644120015500214220AC
:102ED000015500BF4020015500BF0120DEE72068FA
:102EE00080690221084040080028CFD00020D5E7A3
:102EF00010B5002819DB1A4A03231B02D2188308D5
:102F00009B00D2588307DC0EFF23A3409A438B0714
:102F10001B0E8407E40EA3401A43114B0324240222
:102F20001B198408A4001A5118E00E4A03071B0F4E
:102F3000083B9B089B00D2588307DC0EFF23A3406D
:102F40009A438B071B0E8407E40EA3401A43054BDC
:102F50000407240F083CA408A4001A5110BD000067
:102F600000E100E01CED00E010B500F001F810BD3C
:102F700010B5FDF7F6FC10BD10B500F001F810BD5E
:102F800010B5040008D1012406E0FDF7E5FB006858
:102F9000002800D1034880472046FDF7E1FB0028C8
:102FA000F3D010BDAF080008F8B582B28BB2040CA4
:102FB0000D0C10465843002126465E43370C36045C
:102FC0008019794116466E43370C360480197941D1
:102FD00026466E438919F8BD30380A2801D20120EF
:102FE0007047002070470000C4B000BFFEF7CEFE5F
:102FF000254A26A104A8FDF799F9FFF76EFC642085
:10300000FEF724FBFFF740FDFFF702FDFFF750FD41
:1030100021482249086000204860C8608860082074
:1030200008611F48FEF7D9FA02211D48FDF7EDFDA2
:103030001C496846FFF7E8FC09216846FFF78FFC4A
:10304000082201A901311848FDF774FA1BE068460F
:10305000FFF799FC04466F20C0001049086000BFCC
:103060000F48FDF7F6FF0028FAD0104B0E4A0B4927
:103070000B48FDF7E0FD002802D00A20FEF7E6FA33
:103080002046FFF771FFE2E7683100084C696D697F
:103090007420253038580A0077030000A000002073
:1030A000240000204C000020000000201000002020
:1030B00002030405060708090A0B0C0D0E0F101079
:1030C0000102030405060708090A0B0C0D0E0F1078
:1030D00000000000000000000102030406070809C8
:1030E000000000000102030430313233343536373A
:1030F000383941424344454640305800303132333C
:10310000343536373839616263646566403078003B
:1031100004000008000000000000000200010000A0
:1031200010000000443100080000002024000000CE
:103130000401000868310008240000201407000082
:103140002001000800000000000000000000000056
:10315000000000000000000000000000040000006B
:083160000100000000127A00DA
:04000005080000C12E
:00000001FF
